{
  "contractName": "Lending",
  "abi": [
    {
      "inputs": [
        {
          "internalType": "address",
          "name": "",
          "type": "address"
        }
      ],
      "name": "addressToAmt",
      "outputs": [
        {
          "internalType": "uint256",
          "name": "",
          "type": "uint256"
        }
      ],
      "stateMutability": "view",
      "type": "function",
      "constant": true
    },
    {
      "inputs": [
        {
          "internalType": "address",
          "name": "",
          "type": "address"
        }
      ],
      "name": "addressToTime",
      "outputs": [
        {
          "internalType": "uint256",
          "name": "",
          "type": "uint256"
        }
      ],
      "stateMutability": "view",
      "type": "function",
      "constant": true
    },
    {
      "inputs": [
        {
          "internalType": "uint256",
          "name": "_newVal",
          "type": "uint256"
        }
      ],
      "name": "modifyLTV",
      "outputs": [],
      "stateMutability": "nonpayable",
      "type": "function"
    },
    {
      "inputs": [
        {
          "internalType": "uint256",
          "name": "_collateralVal",
          "type": "uint256"
        }
      ],
      "name": "calculateLoanAmt",
      "outputs": [
        {
          "internalType": "uint256",
          "name": "",
          "type": "uint256"
        }
      ],
      "stateMutability": "pure",
      "type": "function",
      "constant": true
    },
    {
      "inputs": [
        {
          "internalType": "uint256",
          "name": "_collateralVal",
          "type": "uint256"
        }
      ],
      "name": "requestForLoan",
      "outputs": [],
      "stateMutability": "nonpayable",
      "type": "function"
    },
    {
      "inputs": [
        {
          "internalType": "uint256",
          "name": "_collateralVal",
          "type": "uint256"
        }
      ],
      "name": "calMaxEligibleAmt",
      "outputs": [
        {
          "internalType": "uint256",
          "name": "",
          "type": "uint256"
        }
      ],
      "stateMutability": "pure",
      "type": "function",
      "constant": true
    },
    {
      "inputs": [],
      "name": "calculateTotalPayable",
      "outputs": [
        {
          "internalType": "uint256",
          "name": "",
          "type": "uint256"
        }
      ],
      "stateMutability": "view",
      "type": "function",
      "constant": true
    },
    {
      "inputs": [],
      "name": "calculateInterest",
      "outputs": [
        {
          "internalType": "uint256",
          "name": "",
          "type": "uint256"
        }
      ],
      "stateMutability": "view",
      "type": "function",
      "constant": true
    },
    {
      "inputs": [
        {
          "internalType": "uint256",
          "name": "_amt",
          "type": "uint256"
        },
        {
          "internalType": "uint256",
          "name": "_days",
          "type": "uint256"
        }
      ],
      "name": "calApproxInterest",
      "outputs": [
        {
          "internalType": "uint256",
          "name": "",
          "type": "uint256"
        }
      ],
      "stateMutability": "pure",
      "type": "function",
      "constant": true
    },
    {
      "inputs": [],
      "name": "fetchTimeSpent",
      "outputs": [
        {
          "internalType": "uint256",
          "name": "",
          "type": "uint256"
        }
      ],
      "stateMutability": "view",
      "type": "function",
      "constant": true
    }
  ],
  "bytecode": "0x6080604052601460005534801561001557600080fd5b506108f8806100256000396000f3fe608060405234801561001057600080fd5b50600436106100bb576000357c01000000000000000000000000000000000000000000000000000000009004806385dc5ff01161008357806385dc5ff014610176578063ac6abf71146101a6578063d00bebfd146101d6578063eb0c4955146101f4578063f4d85f5a14610212576100bb565b80631667fea4146100c0578063310b5514146100dc5780633724a4511461010c5780633759e5421461012857806347c4473814610146575b600080fd5b6100da60048036038101906100d59190610667565b610242565b005b6100f660048036038101906100f19190610667565b6102db565b60405161010391906106a3565b60405180910390f35b61012660048036038101906101219190610667565b610308565b005b610130610312565b60405161013d91906106a3565b60405180910390f35b610160600480360381019061015b919061071c565b610409565b60405161016d91906106a3565b60405180910390f35b610190600480360381019061018b919061071c565b610421565b60405161019d91906106a3565b60405180910390f35b6101c060048036038101906101bb9190610749565b610439565b6040516101cd91906106a3565b60405180910390f35b6101de610487565b6040516101eb91906106a3565b60405180910390f35b6101fc61052f565b60405161020991906106a3565b60405180910390f35b61022c60048036038101906102279190610667565b610615565b60405161023991906106a3565b60405180910390f35b600061024d826102db565b905080600160003373ffffffffffffffffffffffffffffffffffffffff1673ffffffffffffffffffffffffffffffffffffffff1681526020019081526020016000208190555043600260003373ffffffffffffffffffffffffffffffffffffffff1673ffffffffffffffffffffffffffffffffffffffff168152602001908152602001600020819055505050565b6000806014836102eb91906107b8565b905060006064905080826102ff9190610829565b92505050919050565b8060008190555050565b600080600160003373ffffffffffffffffffffffffffffffffffffffff1673ffffffffffffffffffffffffffffffffffffffff1681526020019081526020016000205490506000600260003373ffffffffffffffffffffffffffffffffffffffff1673ffffffffffffffffffffffffffffffffffffffff16815260200190815260200160002054436103a4919061085a565b905060006090826103b59190610829565b90506000610ab3905060008183866103cd91906107b8565b6103d791906107b8565b90506000620186a0826103ea9190610829565b9050600081876103fa919061088e565b90508097505050505050505090565b60016020528060005260406000206000915090505481565b60026020528060005260406000206000915090505481565b60008083905060008390506000610ab39050600081838561045a91906107b8565b61046491906107b8565b90506000620186a0826104779190610829565b9050809550505050505092915050565b6000806000600260003373ffffffffffffffffffffffffffffffffffffffff1673ffffffffffffffffffffffffffffffffffffffff168152602001908152602001600020541461052357600260003373ffffffffffffffffffffffffffffffffffffffff1673ffffffffffffffffffffffffffffffffffffffff168152602001908152602001600020544361051c919061085a565b9050610528565b600090505b8091505090565b600080600160003373ffffffffffffffffffffffffffffffffffffffff1673ffffffffffffffffffffffffffffffffffffffff1681526020019081526020016000205490506000600260003373ffffffffffffffffffffffffffffffffffffffff1673ffffffffffffffffffffffffffffffffffffffff16815260200190815260200160002054436105c1919061085a565b905060006090826105d29190610829565b90506000610ab3905060008183866105ea91906107b8565b6105f491906107b8565b90506000620186a0826106079190610829565b905080965050505050505090565b600080610621836102db565b905080915050919050565b600080fd5b6000819050919050565b61064481610631565b811461064f57600080fd5b50565b6000813590506106618161063b565b92915050565b60006020828403121561067d5761067c61062c565b5b600061068b84828501610652565b91505092915050565b61069d81610631565b82525050565b60006020820190506106b86000830184610694565b92915050565b600073ffffffffffffffffffffffffffffffffffffffff82169050919050565b60006106e9826106be565b9050919050565b6106f9816106de565b811461070457600080fd5b50565b600081359050610716816106f0565b92915050565b6000602082840312156107325761073161062c565b5b600061074084828501610707565b91505092915050565b600080604083850312156107605761075f61062c565b5b600061076e85828601610652565b925050602061077f85828601610652565b9150509250929050565b7f4e487b7100000000000000000000000000000000000000000000000000000000600052601160045260246000fd5b60006107c382610631565b91506107ce83610631565b92508282026107dc81610631565b915082820484148315176107f3576107f2610789565b5b5092915050565b7f4e487b7100000000000000000000000000000000000000000000000000000000600052601260045260246000fd5b600061083482610631565b915061083f83610631565b92508261084f5761084e6107fa565b5b828204905092915050565b600061086582610631565b915061087083610631565b925082820390508181111561088857610887610789565b5b92915050565b600061089982610631565b91506108a483610631565b92508282019050808211156108bc576108bb610789565b5b9291505056fea26469706673582212206a937d1900774579966221f18a210a54b728e4c8f9aca462bd641025bc04540d64736f6c63430008110033",
  "immutableReferences": {},
  "source": "// SPDX-License-Identifier: OrdinalDAO\r\npragma solidity ^0.8.0;\r\ncontract Lending{\r\n// calculating the value of loan on the basis of collateral \r\n uint  LTV = 20;\r\n mapping(address=>uint) public addressToAmt;\r\n mapping(address=>uint) public addressToTime;\r\n \r\n function modifyLTV(uint _newVal) public {\r\n     LTV = _newVal;\r\n }\r\n // 0.00002(RBTC)*10^8=2000RSAT\r\nfunction calculateLoanAmt(uint _collateralVal) public pure returns(uint) {\r\n uint num = _collateralVal*20;\r\n uint denom = 100;\r\n return num/denom; // It is returning the value in RSAT (in lowest denomination)\r\n} \r\n function requestForLoan(uint _collateralVal) public   {\r\n    uint loanAmt = calculateLoanAmt(_collateralVal);\r\n    addressToAmt[msg.sender]= loanAmt;\r\n    addressToTime[msg.sender]=block.number;\r\n }\r\n  function calMaxEligibleAmt(uint _collateralVal) public pure returns(uint){ // gives the user the max amount can be borrowed\r\n    uint loanAmt = calculateLoanAmt(_collateralVal);\r\n    return loanAmt;\r\n }\r\n\r\n   function calculateTotalPayable() public view returns (uint) {\r\n        uint amt = addressToAmt[msg.sender];\r\n        uint block_difference = block.number - addressToTime[msg.sender];\r\n        uint no_of_days = block_difference / 144;\r\n        uint rate_of_interest = 2739; // 2739 x 10^(-5) , we manage the decimals below\r\n        uint total_interest_non_decimal = amt * no_of_days * rate_of_interest;\r\n        uint total_interest = total_interest_non_decimal / 100000;\r\n        uint total_payable_amount = amt + total_interest;\r\n        return total_payable_amount;\r\n    }\r\n   function calculateInterest() public view returns (uint) {\r\n        uint amt = addressToAmt[msg.sender];\r\n        uint block_difference = block.number - addressToTime[msg.sender];\r\n        uint no_of_days = block_difference / 144;\r\n        uint rate_of_interest = 2739; // 2739 x 10^(-5) , we manage the decimals below\r\n        uint total_interest_non_decimal = amt * no_of_days * rate_of_interest;\r\n        uint total_interest = total_interest_non_decimal / 100000;\r\n        return total_interest;\r\n    }\r\n      function calApproxInterest(uint _amt,uint _days) public pure returns (uint) {\r\n        uint amt = _amt;\r\n        uint no_of_days = _days;\r\n        uint rate_of_interest = 2739; // 2739 x 10^(-5) , we manage the decimals below\r\n        uint total_interest_non_decimal = amt * no_of_days * rate_of_interest;\r\n        uint total_interest = total_interest_non_decimal / 100000;\r\n        return total_interest;\r\n    }\r\n    function fetchTimeSpent() public view returns (uint)\r\n   {    uint time;\r\n      if(addressToTime[msg.sender]!=0)\r\n      {\r\n      time =  block.number-addressToTime[msg.sender]; \r\n   }\r\n   else{\r\n    time = 0;\r\n   }\r\n       \r\n     return (time);\r\n   }\r\n function resetValue() internal {\r\n     addressToAmt[msg.sender] =0;\r\n     addressToTime[msg.sender] =0;\r\n\r\n }\r\n}",
  "sourcePath": "C:\\Users\\soumy\\Desktop\\rootstock-testing\\Ordinal Dao\\smart contracts\\contracts\\protocol-core\\LendingLogic.sol",
  "compiler": {
    "name": "solc",
    "version": "0.8.17+commit.8df45f5f.Emscripten.clang"
  },
  "schemaVersion": "3.4.14",
  "updatedAt": "2023-09-06T15:30:26.298Z",
  "networkType": "ethereum",
  "devdoc": {
    "kind": "dev",
    "methods": {},
    "version": 1
  },
  "userdoc": {
    "kind": "user",
    "methods": {},
    "version": 1
  }
}