{
  "contractName": "LoanOperations",
  "abi": [
    {
      "inputs": [
        {
          "internalType": "address",
          "name": "_borrower",
          "type": "address"
        },
        {
          "internalType": "uint256",
          "name": "_amt",
          "type": "uint256"
        }
      ],
      "name": "createLoan",
      "outputs": [
        {
          "internalType": "uint256",
          "name": "",
          "type": "uint256"
        }
      ],
      "stateMutability": "nonpayable",
      "type": "function"
    },
    {
      "inputs": [
        {
          "internalType": "uint256",
          "name": "_id",
          "type": "uint256"
        },
        {
          "internalType": "string",
          "name": "_collName",
          "type": "string"
        },
        {
          "internalType": "uint256",
          "name": "_price",
          "type": "uint256"
        },
        {
          "internalType": "address",
          "name": "_staker",
          "type": "address"
        }
      ],
      "name": "addcollateral",
      "outputs": [
        {
          "internalType": "uint256",
          "name": "",
          "type": "uint256"
        }
      ],
      "stateMutability": "nonpayable",
      "type": "function"
    },
    {
      "inputs": [
        {
          "internalType": "uint256[]",
          "name": "_id",
          "type": "uint256[]"
        },
        {
          "internalType": "string[]",
          "name": "_collName",
          "type": "string[]"
        },
        {
          "internalType": "uint256[]",
          "name": "_price",
          "type": "uint256[]"
        },
        {
          "internalType": "address",
          "name": "_staker",
          "type": "address"
        }
      ],
      "name": "addcollateralInBatch",
      "outputs": [
        {
          "internalType": "uint256",
          "name": "",
          "type": "uint256"
        }
      ],
      "stateMutability": "nonpayable",
      "type": "function"
    },
    {
      "inputs": [
        {
          "internalType": "uint256",
          "name": "_loanId",
          "type": "uint256"
        },
        {
          "internalType": "address",
          "name": "_owner",
          "type": "address"
        }
      ],
      "name": "repayLoan",
      "outputs": [],
      "stateMutability": "nonpayable",
      "type": "function"
    }
  ],
  "bytecode": "0x6080604052738798886b80638f4aa3bad4f528497a335bdd9247600360006101000a81548173ffffffffffffffffffffffffffffffffffffffff021916908373ffffffffffffffffffffffffffffffffffffffff16021790555034801561006557600080fd5b50611239806100756000396000f3fe608060405234801561001057600080fd5b5060043610610069576000357c010000000000000000000000000000000000000000000000000000000090048063172c36a61461006e578063918344d31461009e578063e75da598146100ba578063ff8fcb3f146100ea575b600080fd5b61008860048036038101906100839190610a05565b61011a565b6040516100959190610a97565b60405180910390f35b6100b860048036038101906100b39190610ab2565b6102ef565b005b6100d460048036038101906100cf9190610af2565b6104a1565b6040516100e19190610a97565b60405180910390f35b61010460048036038101906100ff9190610cdb565b6105b0565b6040516101119190610a97565b60405180910390f35b600080600360009054906101000a900473ffffffffffffffffffffffffffffffffffffffff169050600061014e60006107f3565b9050600160008281526020019081526020016000206040518060c001604052808981526020018881526020018781526020018673ffffffffffffffffffffffffffffffffffffffff1681526020018473ffffffffffffffffffffffffffffffffffffffff168152602001600060028111156101cc576101cb610d96565b5b81525090806001815401808255809150506001900390600052602060002090600502016000909190919091506000820151816000015560208201518160010190816102179190610fe2565b506040820151816002015560608201518160030160006101000a81548173ffffffffffffffffffffffffffffffffffffffff021916908373ffffffffffffffffffffffffffffffffffffffff16021790555060808201518160040160006101000a81548173ffffffffffffffffffffffffffffffffffffffff021916908373ffffffffffffffffffffffffffffffffffffffff16021790555060a08201518160040160146101000a81548160ff021916908360028111156102db576102da610d96565b5b021790555050508092505050949350505050565b60006002600084815260200190815260200160002090508060030160009054906101000a900460ff166040516020016103289190611142565b6040516020818303038152906040528051906020012060016040516020016103509190611142565b60405160208183030381529060405280519060200120036103995760028160030160006101000a81548160ff0219169083600381111561039357610392610d96565b5b02179055505b600060016000858152602001908152602001600020805490509050600060016000868152602001908152602001600020905060005b828110156104995760018282815481106103eb576103ea61115d565b5b906000526020600020906005020160040160146101000a81548160ff0219169083600281111561041e5761041d610d96565b5b0217905550848282815481106104375761043661115d565b5b906000526020600020906005020160040160006101000a81548173ffffffffffffffffffffffffffffffffffffffff021916908373ffffffffffffffffffffffffffffffffffffffff1602179055508080610491906111bb565b9150506103ce565b505050505050565b60006104ad6000610801565b60006104b960006107f3565b905060405180608001604052808281526020018573ffffffffffffffffffffffffffffffffffffffff1681526020018481526020016000600381111561050257610501610d96565b5b815250600260008381526020019081526020016000206000820151816000015560208201518160010160006101000a81548173ffffffffffffffffffffffffffffffffffffffff021916908373ffffffffffffffffffffffffffffffffffffffff1602179055506040820151816002015560608201518160030160006101000a81548160ff0219169083600381111561059e5761059d610d96565b5b02179055509050508091505092915050565b600080600360009054906101000a900473ffffffffffffffffffffffffffffffffffffffff16905060006105e460006107f3565b905060005b60048110156107e557600160008381526020019081526020016000206040518060c001604052808a84815181106106235761062261115d565b5b602002602001015181526020018984815181106106435761064261115d565b5b602002602001015181526020018884815181106106635761066261115d565b5b602002602001015181526020018773ffffffffffffffffffffffffffffffffffffffff1681526020018573ffffffffffffffffffffffffffffffffffffffff168152602001600060028111156106bc576106bb610d96565b5b81525090806001815401808255809150506001900390600052602060002090600502016000909190919091506000820151816000015560208201518160010190816107079190610fe2565b506040820151816002015560608201518160030160006101000a81548173ffffffffffffffffffffffffffffffffffffffff021916908373ffffffffffffffffffffffffffffffffffffffff16021790555060808201518160040160006101000a81548173ffffffffffffffffffffffffffffffffffffffff021916908373ffffffffffffffffffffffffffffffffffffffff16021790555060a08201518160040160146101000a81548160ff021916908360028111156107cb576107ca610d96565b5b0217905550505080806107dd906111bb565b9150506105e9565b508092505050949350505050565b600081600001549050919050565b6001816000016000828254019250508190555050565b6000604051905090565b600080fd5b600080fd5b6000819050919050565b61083e8161082b565b811461084957600080fd5b50565b60008135905061085b81610835565b92915050565b600080fd5b600080fd5b6000601f19601f8301169050919050565b7f4e487b7100000000000000000000000000000000000000000000000000000000600052604160045260246000fd5b6108b48261086b565b810181811067ffffffffffffffff821117156108d3576108d261087c565b5b80604052505050565b60006108e6610817565b90506108f282826108ab565b919050565b600067ffffffffffffffff8211156109125761091161087c565b5b61091b8261086b565b9050602081019050919050565b82818337600083830152505050565b600061094a610945846108f7565b6108dc565b90508281526020810184848401111561096657610965610866565b5b610971848285610928565b509392505050565b600082601f83011261098e5761098d610861565b5b813561099e848260208601610937565b91505092915050565b600073ffffffffffffffffffffffffffffffffffffffff82169050919050565b60006109d2826109a7565b9050919050565b6109e2816109c7565b81146109ed57600080fd5b50565b6000813590506109ff816109d9565b92915050565b60008060008060808587031215610a1f57610a1e610821565b5b6000610a2d8782880161084c565b945050602085013567ffffffffffffffff811115610a4e57610a4d610826565b5b610a5a87828801610979565b9350506040610a6b8782880161084c565b9250506060610a7c878288016109f0565b91505092959194509250565b610a918161082b565b82525050565b6000602082019050610aac6000830184610a88565b92915050565b60008060408385031215610ac957610ac8610821565b5b6000610ad78582860161084c565b9250506020610ae8858286016109f0565b9150509250929050565b60008060408385031215610b0957610b08610821565b5b6000610b17858286016109f0565b9250506020610b288582860161084c565b9150509250929050565b600067ffffffffffffffff821115610b4d57610b4c61087c565b5b602082029050602081019050919050565b600080fd5b6000610b76610b7184610b32565b6108dc565b90508083825260208201905060208402830185811115610b9957610b98610b5e565b5b835b81811015610bc25780610bae888261084c565b845260208401935050602081019050610b9b565b5050509392505050565b600082601f830112610be157610be0610861565b5b8135610bf1848260208601610b63565b91505092915050565b600067ffffffffffffffff821115610c1557610c1461087c565b5b602082029050602081019050919050565b6000610c39610c3484610bfa565b6108dc565b90508083825260208201905060208402830185811115610c5c57610c5b610b5e565b5b835b81811015610ca357803567ffffffffffffffff811115610c8157610c80610861565b5b808601610c8e8982610979565b85526020850194505050602081019050610c5e565b5050509392505050565b600082601f830112610cc257610cc1610861565b5b8135610cd2848260208601610c26565b91505092915050565b60008060008060808587031215610cf557610cf4610821565b5b600085013567ffffffffffffffff811115610d1357610d12610826565b5b610d1f87828801610bcc565b945050602085013567ffffffffffffffff811115610d4057610d3f610826565b5b610d4c87828801610cad565b935050604085013567ffffffffffffffff811115610d6d57610d6c610826565b5b610d7987828801610bcc565b9250506060610d8a878288016109f0565b91505092959194509250565b7f4e487b7100000000000000000000000000000000000000000000000000000000600052602160045260246000fd5b600081519050919050565b7f4e487b7100000000000000000000000000000000000000000000000000000000600052602260045260246000fd5b60006002820490506001821680610e1757607f821691505b602082108103610e2a57610e29610dd0565b5b50919050565b60008190508160005260206000209050919050565b60006020601f8301049050919050565b60008160020a8302905092915050565b600060088302610e957fffffffffffffffffffffffffffffffffffffffffffffffffffffffffffffffff82610e55565b610e9f8683610e55565b95508019841693508086168417925050509392505050565b6000819050919050565b6000610edc610ed7610ed28461082b565b610eb7565b61082b565b9050919050565b6000819050919050565b610ef683610ec1565b610f0a610f0282610ee3565b848454610e65565b825550505050565b600090565b610f1f610f12565b610f2a818484610eed565b505050565b5b81811015610f4e57610f43600082610f17565b600181019050610f30565b5050565b601f821115610f9357610f6481610e30565b610f6d84610e45565b81016020851015610f7c578190505b610f90610f8885610e45565b830182610f2f565b50505b505050565b60008160020a8304905092915050565b6000610fb960001984600802610f98565b1980831691505092915050565b6000610fd28383610fa8565b9150826002028217905092915050565b610feb82610dc5565b67ffffffffffffffff8111156110045761100361087c565b5b61100e8254610dff565b611019828285610f52565b600060209050601f83116001811461104c576000841561103a578287015190505b6110448582610fc6565b8655506110ac565b601f19841661105a86610e30565b60005b828110156110825784890151825560018201915060208501945060208101905061105d565b8683101561109f578489015161109b601f891682610fa8565b8355505b6001600288020188555050505b505050505050565b600481106110c5576110c4610d96565b5b50565b60008190506110d6826110b4565b919050565b60006110e6826110c8565b9050919050565b60007f010000000000000000000000000000000000000000000000000000000000000082029050919050565b6000611124826110ed565b9050919050565b61113c611137826110db565b611119565b82525050565b600061114e828461112b565b60018201915081905092915050565b7f4e487b7100000000000000000000000000000000000000000000000000000000600052603260045260246000fd5b7f4e487b7100000000000000000000000000000000000000000000000000000000600052601160045260246000fd5b60006111c68261082b565b91507fffffffffffffffffffffffffffffffffffffffffffffffffffffffffffffffff82036111f8576111f761118c565b5b60018201905091905056fea2646970667358221220fa742587d9db8bff67d45dd5e7b8b543b7a3780b9252588dea44333e412f953b64736f6c63430008110033",
  "immutableReferences": {},
  "source": "// SPDX-License-Identifier: OrdinalDAO\r\npragma solidity ^0.8.10;\r\nimport {DataTypes} from \"../libraries/types/DataTypes.sol\";\r\nimport {CountersUpgradeable} from \"@openzeppelin/contracts-upgradeable/utils/CountersUpgradeable.sol\";\r\ncontract LoanOperations \r\n{\r\nusing CountersUpgradeable for CountersUpgradeable.Counter;\r\n CountersUpgradeable.Counter private _loanIdTracker;\r\n mapping(uint=>DataTypes.Ordinal[]) private ordinalStaked;\r\n mapping(uint=>DataTypes.LoanData) private loans;\r\n address private poolContractAddress =0x8798886B80638F4aA3BAd4f528497A335BdD9247; \r\n function createLoan(address _borrower,uint _amt) external returns(uint) {\r\n     _loanIdTracker.increment();\r\n    uint idOfLoan = _loanIdTracker.current();\r\n    loans[idOfLoan]=DataTypes.LoanData(idOfLoan,_borrower,_amt,DataTypes.LoanState.CREATED);\r\n    return idOfLoan;\r\n\r\n }\r\n function addcollateral (uint _id, string memory _collName,uint _price,address _staker) external returns(uint)\r\n {\r\n    address _owner=poolContractAddress; // pool contract address\r\n    uint idOfLoan = _loanIdTracker.current();\r\n    ordinalStaked[idOfLoan].push(DataTypes.Ordinal(_id,_collName,_price,_staker,_owner,DataTypes.OrdinalState.STAKED));\r\n    return idOfLoan;\r\n }\r\n function addcollateralInBatch(uint[] memory _id, string[] memory _collName , uint[] memory _price , address _staker) external returns(uint)\r\n {\r\n    address _owner = poolContractAddress;\r\n    uint idOfLoan = _loanIdTracker.current();\r\n    for(uint i=0;i<4;i++)\r\n    {\r\n       ordinalStaked[idOfLoan].push(DataTypes.Ordinal(_id[i],_collName[i],_price[i],_staker,_owner,DataTypes.OrdinalState.STAKED));\r\n    }\r\n    return idOfLoan;\r\n    \r\n }\r\n function repayLoan(uint _loanId , address _owner) external\r\n {\r\n   DataTypes.LoanData storage currentLoan = loans[_loanId];\r\n   if(keccak256(abi.encodePacked(DataTypes.LoanState.ACTIVE)) == keccak256(abi.encodePacked(currentLoan.state)))\r\n   {\r\n      \r\n      currentLoan.state = DataTypes.LoanState.REPAID;\r\n   } \r\n   uint num_of_ord_staked=ordinalStaked[_loanId].length;\r\n   DataTypes.Ordinal [] storage currentCollateral = ordinalStaked[_loanId];\r\n   for(uint i=0;i<num_of_ord_staked;i++)\r\n   {\r\n     currentCollateral[i].state = DataTypes.OrdinalState.REPAID;\r\n     currentCollateral[i].owner = _owner;\r\n\r\n   }\r\n }\r\n}",
  "sourcePath": "C:\\Users\\soumy\\Desktop\\rootstock-testing\\Ordinal Dao\\smart contracts\\contracts\\protocol-core\\LoanOperations.sol",
  "compiler": {
    "name": "solc",
    "version": "0.8.17+commit.8df45f5f.Emscripten.clang"
  },
  "schemaVersion": "3.4.14",
  "updatedAt": "2023-09-06T15:30:26.312Z",
  "networkType": "ethereum",
  "devdoc": {
    "kind": "dev",
    "methods": {},
    "version": 1
  },
  "userdoc": {
    "kind": "user",
    "methods": {},
    "version": 1
  }
}